:0300000002086A89
:0C086A00787FE4F6D8FD75810702085C79
:0808760057454C434F4D45006E
:0E085C001208007BFF7A08797612084980FEA8
:10080000BE2505BF80027DFDBE1205BFC0027DFA78
:10081000BE0905BF60027DF4E4B50709EEB44B05DF
:0F0820007587807DFD7589208D8D759850D28EDE
:01082F0022A6
:08087E008F993099FDC2992207
:080886003098FDC298AF9922E1
:10084900120830FF600C12087E740129F9E43AFAA3
:0308590080EE220C
:10083000BB010689828A83E0225002E722BBFE02C6
:09084000E32289828A83E49322F9
:00000001FF
