:030000000209FDF5
:0C09FD00787FE4F6D8FD75810E02090F2A
:1009B000E4FDFCC3ED9FEC9E5015E4FBFA0BBB007D
:0F09C000010AEB64714A70F50DBD00010C80E473
:0109CF002205
:050A0900010C0638801D
:1009D0008F90C286D2877F017E001209B0C2872223
:1009E0008F90D286D2877F017E001209B0C2872203
:10095000780A7C007D007BFF7A0A79097E007F059A
:100960001208D0E4F508F509740A2509F8E6FF1223
:1009700009D07F0A7E001209B00509E50970020559
:0C09800008C39405E5086480948040DC06
:01098C002248
:10098D008B088A09890AAB08AA09A90A1208F6FF79
:10099D0060101209E07401250AF50AE43509F5091C
:0309AD0080E422C1
:0D09F0005541525420495320544F205200CD
:10090F00758920758DFD759850D28E1209507BFF19
:10091F007A0979F012098D7FE87E031209B07F0101
:10092F001209D0309807C298AF991209E020A0F3AE
:10093F007FFA7E001209B075994D3099FDC29980EA
:01094F00E2C5
:10080000E709F608DFFA8046E709F208DFFA803EDA
:1008100088828C83E709F0A3DFFA8032E309F608C7
:10082000DFFA8078E309F208DFFA807088828C832F
:10083000E309F0A3DFFA806489828A83E0A3F608E3
:10084000DFFA805889828A83E0A3F208DFFA804CBD
:1008500080D280FA80C680D4806980F28033801094
:1008600080A680EA809A80A880DA80E280CA8033FD
:1008700089828A83ECFAE493A3C8C582C8CCC58375
:10088000CCF0A3C8C582C8CCC583CCDFE9DEE78045
:100890000D89828A83E493A3F608DFF9ECFAA9F0C4
:1008A000EDFB2289828A83ECFAE0A3C8C582C8CC1A
:1008B000C583CCF0A3C8C582C8CCC583CCDFEADE33
:1008C000E880DB89828A83E493A3F208DFF980CC95
:1008D00088F0EF60010E4E60C388F0ED2402B4048E
:1008E0000050B9F582EB2402B4040050AF23234535
:0608F00082239008507302
:1008F600BB010689828A83E0225002E722BBFE0200
:09090600E32289828A83E4932232
:00000001FF
